{
  "_format": "hh-sol-artifact-1",
  "contractName": "MyERC4907",
  "sourceName": "contracts/MyERC4907.sol",
  "abi": [
    {
      "inputs": [
        {
          "internalType": "string",
          "name": "name",
          "type": "string"
        },
        {
          "internalType": "string",
          "name": "symbol",
          "type": "string"
        }
      ],
      "stateMutability": "nonpayable",
      "type": "constructor"
    },
    {
      "inputs": [
        {
          "internalType": "address",
          "name": "sender",
          "type": "address"
        },
        {
          "internalType": "uint256",
          "name": "tokenId",
          "type": "uint256"
        },
        {
          "internalType": "address",
          "name": "owner",
          "type": "address"
        }
      ],
      "name": "ERC721IncorrectOwner",
      "type": "error"
    },
    {
      "inputs": [
        {
          "internalType": "address",
          "name": "operator",
          "type": "address"
        },
        {
          "internalType": "uint256",
          "name": "tokenId",
          "type": "uint256"
        }
      ],
      "name": "ERC721InsufficientApproval",
      "type": "error"
    },
    {
      "inputs": [
        {
          "internalType": "address",
          "name": "approver",
          "type": "address"
        }
      ],
      "name": "ERC721InvalidApprover",
      "type": "error"
    },
    {
      "inputs": [
        {
          "internalType": "address",
          "name": "operator",
          "type": "address"
        }
      ],
      "name": "ERC721InvalidOperator",
      "type": "error"
    },
    {
      "inputs": [
        {
          "internalType": "address",
          "name": "owner",
          "type": "address"
        }
      ],
      "name": "ERC721InvalidOwner",
      "type": "error"
    },
    {
      "inputs": [
        {
          "internalType": "address",
          "name": "receiver",
          "type": "address"
        }
      ],
      "name": "ERC721InvalidReceiver",
      "type": "error"
    },
    {
      "inputs": [
        {
          "internalType": "address",
          "name": "sender",
          "type": "address"
        }
      ],
      "name": "ERC721InvalidSender",
      "type": "error"
    },
    {
      "inputs": [
        {
          "internalType": "uint256",
          "name": "tokenId",
          "type": "uint256"
        }
      ],
      "name": "ERC721NonexistentToken",
      "type": "error"
    },
    {
      "anonymous": false,
      "inputs": [
        {
          "indexed": true,
          "internalType": "address",
          "name": "owner",
          "type": "address"
        },
        {
          "indexed": true,
          "internalType": "address",
          "name": "approved",
          "type": "address"
        },
        {
          "indexed": true,
          "internalType": "uint256",
          "name": "tokenId",
          "type": "uint256"
        }
      ],
      "name": "Approval",
      "type": "event"
    },
    {
      "anonymous": false,
      "inputs": [
        {
          "indexed": true,
          "internalType": "address",
          "name": "owner",
          "type": "address"
        },
        {
          "indexed": true,
          "internalType": "address",
          "name": "operator",
          "type": "address"
        },
        {
          "indexed": false,
          "internalType": "bool",
          "name": "approved",
          "type": "bool"
        }
      ],
      "name": "ApprovalForAll",
      "type": "event"
    },
    {
      "anonymous": false,
      "inputs": [
        {
          "indexed": true,
          "internalType": "address",
          "name": "from",
          "type": "address"
        },
        {
          "indexed": true,
          "internalType": "address",
          "name": "to",
          "type": "address"
        },
        {
          "indexed": true,
          "internalType": "uint256",
          "name": "tokenId",
          "type": "uint256"
        }
      ],
      "name": "Transfer",
      "type": "event"
    },
    {
      "inputs": [
        {
          "internalType": "address",
          "name": "User",
          "type": "address"
        }
      ],
      "name": "airdrop",
      "outputs": [],
      "stateMutability": "nonpayable",
      "type": "function"
    },
    {
      "inputs": [
        {
          "internalType": "address",
          "name": "to",
          "type": "address"
        },
        {
          "internalType": "uint256",
          "name": "tokenId",
          "type": "uint256"
        }
      ],
      "name": "approve",
      "outputs": [],
      "stateMutability": "nonpayable",
      "type": "function"
    },
    {
      "inputs": [
        {
          "internalType": "address",
          "name": "owner",
          "type": "address"
        }
      ],
      "name": "balanceOf",
      "outputs": [
        {
          "internalType": "uint256",
          "name": "",
          "type": "uint256"
        }
      ],
      "stateMutability": "view",
      "type": "function"
    },
    {
      "inputs": [],
      "name": "getAmount",
      "outputs": [
        {
          "internalType": "uint256",
          "name": "",
          "type": "uint256"
        }
      ],
      "stateMutability": "view",
      "type": "function"
    },
    {
      "inputs": [
        {
          "internalType": "uint256",
          "name": "tokenId",
          "type": "uint256"
        }
      ],
      "name": "getApproved",
      "outputs": [
        {
          "internalType": "address",
          "name": "",
          "type": "address"
        }
      ],
      "stateMutability": "view",
      "type": "function"
    },
    {
      "inputs": [
        {
          "internalType": "address",
          "name": "owner",
          "type": "address"
        },
        {
          "internalType": "address",
          "name": "operator",
          "type": "address"
        }
      ],
      "name": "isApprovedForAll",
      "outputs": [
        {
          "internalType": "bool",
          "name": "",
          "type": "bool"
        }
      ],
      "stateMutability": "view",
      "type": "function"
    },
    {
      "inputs": [
        {
          "internalType": "uint256",
          "name": "tokenId",
          "type": "uint256"
        },
        {
          "internalType": "address",
          "name": "to",
          "type": "address"
        }
      ],
      "name": "mint",
      "outputs": [],
      "stateMutability": "nonpayable",
      "type": "function"
    },
    {
      "inputs": [],
      "name": "name",
      "outputs": [
        {
          "internalType": "string",
          "name": "",
          "type": "string"
        }
      ],
      "stateMutability": "view",
      "type": "function"
    },
    {
      "inputs": [
        {
          "internalType": "uint256",
          "name": "tokenId",
          "type": "uint256"
        }
      ],
      "name": "ownerOf",
      "outputs": [
        {
          "internalType": "address",
          "name": "",
          "type": "address"
        }
      ],
      "stateMutability": "view",
      "type": "function"
    },
    {
      "inputs": [
        {
          "internalType": "address",
          "name": "from",
          "type": "address"
        },
        {
          "internalType": "address",
          "name": "to",
          "type": "address"
        },
        {
          "internalType": "uint256",
          "name": "tokenId",
          "type": "uint256"
        }
      ],
      "name": "safeTransferFrom",
      "outputs": [],
      "stateMutability": "nonpayable",
      "type": "function"
    },
    {
      "inputs": [
        {
          "internalType": "address",
          "name": "from",
          "type": "address"
        },
        {
          "internalType": "address",
          "name": "to",
          "type": "address"
        },
        {
          "internalType": "uint256",
          "name": "tokenId",
          "type": "uint256"
        },
        {
          "internalType": "bytes",
          "name": "data",
          "type": "bytes"
        }
      ],
      "name": "safeTransferFrom",
      "outputs": [],
      "stateMutability": "nonpayable",
      "type": "function"
    },
    {
      "inputs": [
        {
          "internalType": "address",
          "name": "operator",
          "type": "address"
        },
        {
          "internalType": "bool",
          "name": "approved",
          "type": "bool"
        }
      ],
      "name": "setApprovalForAll",
      "outputs": [],
      "stateMutability": "nonpayable",
      "type": "function"
    },
    {
      "inputs": [
        {
          "internalType": "bytes4",
          "name": "interfaceId",
          "type": "bytes4"
        }
      ],
      "name": "supportsInterface",
      "outputs": [
        {
          "internalType": "bool",
          "name": "",
          "type": "bool"
        }
      ],
      "stateMutability": "view",
      "type": "function"
    },
    {
      "inputs": [],
      "name": "symbol",
      "outputs": [
        {
          "internalType": "string",
          "name": "",
          "type": "string"
        }
      ],
      "stateMutability": "view",
      "type": "function"
    },
    {
      "inputs": [
        {
          "internalType": "uint256",
          "name": "tokenId",
          "type": "uint256"
        }
      ],
      "name": "tokenURI",
      "outputs": [
        {
          "internalType": "string",
          "name": "",
          "type": "string"
        }
      ],
      "stateMutability": "view",
      "type": "function"
    },
    {
      "inputs": [
        {
          "internalType": "address",
          "name": "from",
          "type": "address"
        },
        {
          "internalType": "address",
          "name": "to",
          "type": "address"
        },
        {
          "internalType": "uint256",
          "name": "tokenId",
          "type": "uint256"
        }
      ],
      "name": "transferFrom",
      "outputs": [],
      "stateMutability": "nonpayable",
      "type": "function"
    }
  ],
  "bytecode": "0x60806040523480156200001157600080fd5b506040516200262938038062002629833981810160405281019062000037919062000202565b818181600090816200004a9190620004d2565b5080600190816200005c9190620004d2565b50505060006007819055505050620005b9565b6000604051905090565b600080fd5b600080fd5b600080fd5b600080fd5b6000601f19601f8301169050919050565b7f4e487b7100000000000000000000000000000000000000000000000000000000600052604160045260246000fd5b620000d8826200008d565b810181811067ffffffffffffffff82111715620000fa57620000f96200009e565b5b80604052505050565b60006200010f6200006f565b90506200011d8282620000cd565b919050565b600067ffffffffffffffff82111562000140576200013f6200009e565b5b6200014b826200008d565b9050602081019050919050565b60005b83811015620001785780820151818401526020810190506200015b565b60008484015250505050565b60006200019b620001958462000122565b62000103565b905082815260208101848484011115620001ba57620001b962000088565b5b620001c784828562000158565b509392505050565b600082601f830112620001e757620001e662000083565b5b8151620001f984826020860162000184565b91505092915050565b600080604083850312156200021c576200021b62000079565b5b600083015167ffffffffffffffff8111156200023d576200023c6200007e565b5b6200024b85828601620001cf565b925050602083015167ffffffffffffffff8111156200026f576200026e6200007e565b5b6200027d85828601620001cf565b9150509250929050565b600081519050919050565b7f4e487b7100000000000000000000000000000000000000000000000000000000600052602260045260246000fd5b60006002820490506001821680620002da57607f821691505b602082108103620002f057620002ef62000292565b5b50919050565b60008190508160005260206000209050919050565b60006020601f8301049050919050565b600082821b905092915050565b6000600883026200035a7fffffffffffffffffffffffffffffffffffffffffffffffffffffffffffffffff826200031b565b6200036686836200031b565b95508019841693508086168417925050509392505050565b6000819050919050565b6000819050919050565b6000620003b3620003ad620003a7846200037e565b62000388565b6200037e565b9050919050565b6000819050919050565b620003cf8362000392565b620003e7620003de82620003ba565b84845462000328565b825550505050565b600090565b620003fe620003ef565b6200040b818484620003c4565b505050565b5b81811015620004335762000427600082620003f4565b60018101905062000411565b5050565b601f82111562000482576200044c81620002f6565b62000457846200030b565b8101602085101562000467578190505b6200047f62000476856200030b565b83018262000410565b50505b505050565b600082821c905092915050565b6000620004a76000198460080262000487565b1980831691505092915050565b6000620004c2838362000494565b9150826002028217905092915050565b620004dd8262000287565b67ffffffffffffffff811115620004f957620004f86200009e565b5b620005058254620002c1565b6200051282828562000437565b600060209050601f8311600181146200054a576000841562000535578287015190505b620005418582620004b4565b865550620005b1565b601f1984166200055a86620002f6565b60005b8281101562000584578489015182556001820191506020850194506020810190506200055d565b86831015620005a45784890151620005a0601f89168262000494565b8355505b6001600288020188555050505b505050505050565b61206080620005c96000396000f3fe608060405234801561001057600080fd5b50600436106101005760003560e01c806370a0823111610097578063b88d4fde11610066578063b88d4fde146102a9578063c87b56dd146102c5578063d321fe29146102f5578063e985e9c51461031357610100565b806370a082311461022357806394bf804d1461025357806395d89b411461026f578063a22cb4651461028d57610100565b806321860a05116100d357806321860a051461019f57806323b872dd146101bb57806342842e0e146101d75780636352211e146101f357610100565b806301ffc9a71461010557806306fdde0314610135578063081812fc14610153578063095ea7b314610183575b600080fd5b61011f600480360381019061011a91906117bf565b610343565b60405161012c9190611807565b60405180910390f35b61013d610425565b60405161014a91906118b2565b60405180910390f35b61016d6004803603810190610168919061190a565b6104b7565b60405161017a9190611978565b60405180910390f35b61019d600480360381019061019891906119bf565b6104d3565b005b6101b960048036038101906101b491906119ff565b6104e9565b005b6101d560048036038101906101d09190611a2c565b610610565b005b6101f160048036038101906101ec9190611a2c565b610712565b005b61020d6004803603810190610208919061190a565b610732565b60405161021a9190611978565b60405180910390f35b61023d600480360381019061023891906119ff565b610744565b60405161024a9190611a8e565b60405180910390f35b61026d60048036038101906102689190611aa9565b6107fe565b005b61027761080c565b60405161028491906118b2565b60405180910390f35b6102a760048036038101906102a29190611b15565b61089e565b005b6102c360048036038101906102be9190611c8a565b6108b4565b005b6102df60048036038101906102da919061190a565b6108d1565b6040516102ec91906118b2565b60405180910390f35b6102fd61093a565b60405161030a9190611a8e565b60405180910390f35b61032d60048036038101906103289190611d0d565b610944565b60405161033a9190611807565b60405180910390f35b60007f80ac58cd000000000000000000000000000000000000000000000000000000007bffffffffffffffffffffffffffffffffffffffffffffffffffffffff1916827bffffffffffffffffffffffffffffffffffffffffffffffffffffffff1916148061040e57507f5b5e139f000000000000000000000000000000000000000000000000000000007bffffffffffffffffffffffffffffffffffffffffffffffffffffffff1916827bffffffffffffffffffffffffffffffffffffffffffffffffffffffff1916145b8061041e575061041d826109d8565b5b9050919050565b60606000805461043490611d7c565b80601f016020809104026020016040519081016040528092919081815260200182805461046090611d7c565b80156104ad5780601f10610482576101008083540402835291602001916104ad565b820191906000526020600020905b81548152906001019060200180831161049057829003601f168201915b5050505050905090565b60006104c282610a42565b506104cc82610aca565b9050919050565b6104e582826104e0610b07565b610b0f565b5050565b6104f581600754610b21565b6007600081548092919061050890611ddc565b9190505550610515611719565b81816000019073ffffffffffffffffffffffffffffffffffffffff16908173ffffffffffffffffffffffffffffffffffffffff16815250506365320950816020019067ffffffffffffffff16908167ffffffffffffffff1681525050806006600060016007546105859190611e24565b815260200190815260200160002060008201518160000160006101000a81548173ffffffffffffffffffffffffffffffffffffffff021916908373ffffffffffffffffffffffffffffffffffffffff16021790555060208201518160000160146101000a81548167ffffffffffffffff021916908367ffffffffffffffff1602179055509050505050565b600073ffffffffffffffffffffffffffffffffffffffff168273ffffffffffffffffffffffffffffffffffffffff16036106825760006040517f64a0ae920000000000000000000000000000000000000000000000000000000081526004016106799190611978565b60405180910390fd5b60006106968383610691610b07565b610c1a565b90508373ffffffffffffffffffffffffffffffffffffffff168173ffffffffffffffffffffffffffffffffffffffff161461070c578382826040517f64283d7b00000000000000000000000000000000000000000000000000000000815260040161070393929190611e58565b60405180910390fd5b50505050565b61072d838383604051806020016040528060008152506108b4565b505050565b600061073d82610a42565b9050919050565b60008073ffffffffffffffffffffffffffffffffffffffff168273ffffffffffffffffffffffffffffffffffffffff16036107b75760006040517f89c62b640000000000000000000000000000000000000000000000000000000081526004016107ae9190611978565b60405180910390fd5b600360008373ffffffffffffffffffffffffffffffffffffffff1673ffffffffffffffffffffffffffffffffffffffff168152602001908152602001600020549050919050565b6108088183610b21565b5050565b60606001805461081b90611d7c565b80601f016020809104026020016040519081016040528092919081815260200182805461084790611d7c565b80156108945780601f1061086957610100808354040283529160200191610894565b820191906000526020600020905b81548152906001019060200180831161087757829003601f168201915b5050505050905090565b6108b06108a9610b07565b8383610e34565b5050565b6108bf848484610610565b6108cb84848484610fa3565b50505050565b60606108dc82610a42565b5060006108e761115a565b905060008151116109075760405180602001604052806000815250610932565b8061091184611171565b604051602001610922929190611ecb565b6040516020818303038152906040525b915050919050565b6000600754905090565b6000600560008473ffffffffffffffffffffffffffffffffffffffff1673ffffffffffffffffffffffffffffffffffffffff16815260200190815260200160002060008373ffffffffffffffffffffffffffffffffffffffff1673ffffffffffffffffffffffffffffffffffffffff16815260200190815260200160002060009054906101000a900460ff16905092915050565b60007f01ffc9a7000000000000000000000000000000000000000000000000000000007bffffffffffffffffffffffffffffffffffffffffffffffffffffffff1916827bffffffffffffffffffffffffffffffffffffffffffffffffffffffff1916149050919050565b600080610a4e8361123f565b9050600073ffffffffffffffffffffffffffffffffffffffff168173ffffffffffffffffffffffffffffffffffffffff1603610ac157826040517f7e273289000000000000000000000000000000000000000000000000000000008152600401610ab89190611a8e565b60405180910390fd5b80915050919050565b60006004600083815260200190815260200160002060009054906101000a900473ffffffffffffffffffffffffffffffffffffffff169050919050565b600033905090565b610b1c838383600161127c565b505050565b600073ffffffffffffffffffffffffffffffffffffffff168273ffffffffffffffffffffffffffffffffffffffff1603610b935760006040517f64a0ae92000000000000000000000000000000000000000000000000000000008152600401610b8a9190611978565b60405180910390fd5b6000610ba183836000610c1a565b9050600073ffffffffffffffffffffffffffffffffffffffff168173ffffffffffffffffffffffffffffffffffffffff1614610c155760006040517f73c6ac6e000000000000000000000000000000000000000000000000000000008152600401610c0c9190611978565b60405180910390fd5b505050565b600080610c268461123f565b9050600073ffffffffffffffffffffffffffffffffffffffff168373ffffffffffffffffffffffffffffffffffffffff1614610c6857610c67818486611441565b5b600073ffffffffffffffffffffffffffffffffffffffff168173ffffffffffffffffffffffffffffffffffffffff1614610cf957610caa60008560008061127c565b6001600360008373ffffffffffffffffffffffffffffffffffffffff1673ffffffffffffffffffffffffffffffffffffffff168152602001908152602001600020600082825403925050819055505b600073ffffffffffffffffffffffffffffffffffffffff168573ffffffffffffffffffffffffffffffffffffffff1614610d7c576001600360008773ffffffffffffffffffffffffffffffffffffffff1673ffffffffffffffffffffffffffffffffffffffff168152602001908152602001600020600082825401925050819055505b846002600086815260200190815260200160002060006101000a81548173ffffffffffffffffffffffffffffffffffffffff021916908373ffffffffffffffffffffffffffffffffffffffff160217905550838573ffffffffffffffffffffffffffffffffffffffff168273ffffffffffffffffffffffffffffffffffffffff167fddf252ad1be2c89b69c2b068fc378daa952ba7f163c4a11628f55a4df523b3ef60405160405180910390a4809150509392505050565b600073ffffffffffffffffffffffffffffffffffffffff168273ffffffffffffffffffffffffffffffffffffffff1603610ea557816040517f5b08ba18000000000000000000000000000000000000000000000000000000008152600401610e9c9190611978565b60405180910390fd5b80600560008573ffffffffffffffffffffffffffffffffffffffff1673ffffffffffffffffffffffffffffffffffffffff16815260200190815260200160002060008473ffffffffffffffffffffffffffffffffffffffff1673ffffffffffffffffffffffffffffffffffffffff16815260200190815260200160002060006101000a81548160ff0219169083151502179055508173ffffffffffffffffffffffffffffffffffffffff168373ffffffffffffffffffffffffffffffffffffffff167f17307eab39ab6107e8899845ad3d59bd9653f200f220920489ca2b5937696c3183604051610f969190611807565b60405180910390a3505050565b60008373ffffffffffffffffffffffffffffffffffffffff163b1115611154578273ffffffffffffffffffffffffffffffffffffffff1663150b7a02610fe7610b07565b8685856040518563ffffffff1660e01b81526004016110099493929190611f44565b6020604051808303816000875af192505050801561104557506040513d601f19601f820116820180604052508101906110429190611fa5565b60015b6110c9573d8060008114611075576040519150601f19603f3d011682016040523d82523d6000602084013e61107a565b606091505b5060008151036110c157836040517f64a0ae920000000000000000000000000000000000000000000000000000000081526004016110b89190611978565b60405180910390fd5b805181602001fd5b63150b7a0260e01b7bffffffffffffffffffffffffffffffffffffffffffffffffffffffff1916817bffffffffffffffffffffffffffffffffffffffffffffffffffffffff19161461115257836040517f64a0ae920000000000000000000000000000000000000000000000000000000081526004016111499190611978565b60405180910390fd5b505b50505050565b606060405180602001604052806000815250905090565b60606000600161118084611505565b01905060008167ffffffffffffffff81111561119f5761119e611b5f565b5b6040519080825280601f01601f1916602001820160405280156111d15781602001600182028036833780820191505090505b509050600082602001820190505b600115611234578080600190039150507f3031323334353637383961626364656600000000000000000000000000000000600a86061a8153600a858161122857611227611fd2565b5b049450600085036111df575b819350505050919050565b60006002600083815260200190815260200160002060009054906101000a900473ffffffffffffffffffffffffffffffffffffffff169050919050565b80806112b55750600073ffffffffffffffffffffffffffffffffffffffff168273ffffffffffffffffffffffffffffffffffffffff1614155b156113e95760006112c584610a42565b9050600073ffffffffffffffffffffffffffffffffffffffff168373ffffffffffffffffffffffffffffffffffffffff161415801561133057508273ffffffffffffffffffffffffffffffffffffffff168173ffffffffffffffffffffffffffffffffffffffff1614155b801561134357506113418184610944565b155b1561138557826040517fa9fbf51f00000000000000000000000000000000000000000000000000000000815260040161137c9190611978565b60405180910390fd5b81156113e757838573ffffffffffffffffffffffffffffffffffffffff168273ffffffffffffffffffffffffffffffffffffffff167f8c5be1e5ebec7d5bd14f71427d1e84f3dd0314c0f7b2291e5b200ac8c7c3b92560405160405180910390a45b505b836004600085815260200190815260200160002060006101000a81548173ffffffffffffffffffffffffffffffffffffffff021916908373ffffffffffffffffffffffffffffffffffffffff16021790555050505050565b61144c838383611658565b61150057600073ffffffffffffffffffffffffffffffffffffffff168373ffffffffffffffffffffffffffffffffffffffff16036114c157806040517f7e2732890000000000000000000000000000000000000000000000000000000081526004016114b89190611a8e565b60405180910390fd5b81816040517f177e802f0000000000000000000000000000000000000000000000000000000081526004016114f7929190612001565b60405180910390fd5b505050565b600080600090507a184f03e93ff9f4daa797ed6e38ed64bf6a1f0100000000000000008310611563577a184f03e93ff9f4daa797ed6e38ed64bf6a1f010000000000000000838161155957611558611fd2565b5b0492506040810190505b6d04ee2d6d415b85acef810000000083106115a0576d04ee2d6d415b85acef8100000000838161159657611595611fd2565b5b0492506020810190505b662386f26fc1000083106115cf57662386f26fc1000083816115c5576115c4611fd2565b5b0492506010810190505b6305f5e10083106115f8576305f5e10083816115ee576115ed611fd2565b5b0492506008810190505b612710831061161d57612710838161161357611612611fd2565b5b0492506004810190505b60648310611640576064838161163657611635611fd2565b5b0492506002810190505b600a831061164f576001810190505b80915050919050565b60008073ffffffffffffffffffffffffffffffffffffffff168373ffffffffffffffffffffffffffffffffffffffff161415801561171057508273ffffffffffffffffffffffffffffffffffffffff168473ffffffffffffffffffffffffffffffffffffffff1614806116d157506116d08484610944565b5b8061170f57508273ffffffffffffffffffffffffffffffffffffffff166116f783610aca565b73ffffffffffffffffffffffffffffffffffffffff16145b5b90509392505050565b6040518060400160405280600073ffffffffffffffffffffffffffffffffffffffff168152602001600067ffffffffffffffff1681525090565b6000604051905090565b600080fd5b600080fd5b60007fffffffff0000000000000000000000000000000000000000000000000000000082169050919050565b61179c81611767565b81146117a757600080fd5b50565b6000813590506117b981611793565b92915050565b6000602082840312156117d5576117d461175d565b5b60006117e3848285016117aa565b91505092915050565b60008115159050919050565b611801816117ec565b82525050565b600060208201905061181c60008301846117f8565b92915050565b600081519050919050565b600082825260208201905092915050565b60005b8381101561185c578082015181840152602081019050611841565b60008484015250505050565b6000601f19601f8301169050919050565b600061188482611822565b61188e818561182d565b935061189e81856020860161183e565b6118a781611868565b840191505092915050565b600060208201905081810360008301526118cc8184611879565b905092915050565b6000819050919050565b6118e7816118d4565b81146118f257600080fd5b50565b600081359050611904816118de565b92915050565b6000602082840312156119205761191f61175d565b5b600061192e848285016118f5565b91505092915050565b600073ffffffffffffffffffffffffffffffffffffffff82169050919050565b600061196282611937565b9050919050565b61197281611957565b82525050565b600060208201905061198d6000830184611969565b92915050565b61199c81611957565b81146119a757600080fd5b50565b6000813590506119b981611993565b92915050565b600080604083850312156119d6576119d561175d565b5b60006119e4858286016119aa565b92505060206119f5858286016118f5565b9150509250929050565b600060208284031215611a1557611a1461175d565b5b6000611a23848285016119aa565b91505092915050565b600080600060608486031215611a4557611a4461175d565b5b6000611a53868287016119aa565b9350506020611a64868287016119aa565b9250506040611a75868287016118f5565b9150509250925092565b611a88816118d4565b82525050565b6000602082019050611aa36000830184611a7f565b92915050565b60008060408385031215611ac057611abf61175d565b5b6000611ace858286016118f5565b9250506020611adf858286016119aa565b9150509250929050565b611af2816117ec565b8114611afd57600080fd5b50565b600081359050611b0f81611ae9565b92915050565b60008060408385031215611b2c57611b2b61175d565b5b6000611b3a858286016119aa565b9250506020611b4b85828601611b00565b9150509250929050565b600080fd5b600080fd5b7f4e487b7100000000000000000000000000000000000000000000000000000000600052604160045260246000fd5b611b9782611868565b810181811067ffffffffffffffff82111715611bb657611bb5611b5f565b5b80604052505050565b6000611bc9611753565b9050611bd58282611b8e565b919050565b600067ffffffffffffffff821115611bf557611bf4611b5f565b5b611bfe82611868565b9050602081019050919050565b82818337600083830152505050565b6000611c2d611c2884611bda565b611bbf565b905082815260208101848484011115611c4957611c48611b5a565b5b611c54848285611c0b565b509392505050565b600082601f830112611c7157611c70611b55565b5b8135611c81848260208601611c1a565b91505092915050565b60008060008060808587031215611ca457611ca361175d565b5b6000611cb2878288016119aa565b9450506020611cc3878288016119aa565b9350506040611cd4878288016118f5565b925050606085013567ffffffffffffffff811115611cf557611cf4611762565b5b611d0187828801611c5c565b91505092959194509250565b60008060408385031215611d2457611d2361175d565b5b6000611d32858286016119aa565b9250506020611d43858286016119aa565b9150509250929050565b7f4e487b7100000000000000000000000000000000000000000000000000000000600052602260045260246000fd5b60006002820490506001821680611d9457607f821691505b602082108103611da757611da6611d4d565b5b50919050565b7f4e487b7100000000000000000000000000000000000000000000000000000000600052601160045260246000fd5b6000611de7826118d4565b91507fffffffffffffffffffffffffffffffffffffffffffffffffffffffffffffffff8203611e1957611e18611dad565b5b600182019050919050565b6000611e2f826118d4565b9150611e3a836118d4565b9250828203905081811115611e5257611e51611dad565b5b92915050565b6000606082019050611e6d6000830186611969565b611e7a6020830185611a7f565b611e876040830184611969565b949350505050565b600081905092915050565b6000611ea582611822565b611eaf8185611e8f565b9350611ebf81856020860161183e565b80840191505092915050565b6000611ed78285611e9a565b9150611ee38284611e9a565b91508190509392505050565b600081519050919050565b600082825260208201905092915050565b6000611f1682611eef565b611f208185611efa565b9350611f3081856020860161183e565b611f3981611868565b840191505092915050565b6000608082019050611f596000830187611969565b611f666020830186611969565b611f736040830185611a7f565b8181036060830152611f858184611f0b565b905095945050505050565b600081519050611f9f81611793565b92915050565b600060208284031215611fbb57611fba61175d565b5b6000611fc984828501611f90565b91505092915050565b7f4e487b7100000000000000000000000000000000000000000000000000000000600052601260045260246000fd5b60006040820190506120166000830185611969565b6120236020830184611a7f565b939250505056fea264697066735822122058a09289b02907277d6608dca30bb429dc64ddac8553dc853fbbca5b922b535264736f6c63430008140033",
  "linkReferences": {},
  "deployedLinkReferences": {}
}