{
  "_format": "hh-sol-artifact-1",
  "contractName": "BorrowYourCar",
  "sourceName": "contracts/BorrowYourCar.sol",
  "abi": [
    {
      "inputs": [],
      "stateMutability": "nonpayable",
      "type": "constructor"
    },
    {
      "anonymous": false,
      "inputs": [
        {
          "indexed": false,
          "internalType": "uint32",
          "name": "carTokenId",
          "type": "uint32"
        },
        {
          "indexed": false,
          "internalType": "address",
          "name": "borrower",
          "type": "address"
        },
        {
          "indexed": false,
          "internalType": "uint256",
          "name": "startTime",
          "type": "uint256"
        },
        {
          "indexed": false,
          "internalType": "uint256",
          "name": "duration",
          "type": "uint256"
        }
      ],
      "name": "CarBorrowed",
      "type": "event"
    },
    {
      "inputs": [
        {
          "internalType": "uint256",
          "name": "car",
          "type": "uint256"
        },
        {
          "internalType": "uint64",
          "name": "now",
          "type": "uint64"
        },
        {
          "internalType": "uint64",
          "name": "duration",
          "type": "uint64"
        }
      ],
      "name": "BorrowCar",
      "outputs": [
        {
          "internalType": "bool",
          "name": "",
          "type": "bool"
        },
        {
          "internalType": "string",
          "name": "",
          "type": "string"
        }
      ],
      "stateMutability": "nonpayable",
      "type": "function"
    },
    {
      "inputs": [],
      "name": "GetALLCarList",
      "outputs": [
        {
          "internalType": "uint256[]",
          "name": "",
          "type": "uint256[]"
        }
      ],
      "stateMutability": "view",
      "type": "function"
    },
    {
      "inputs": [
        {
          "internalType": "uint64",
          "name": "now",
          "type": "uint64"
        }
      ],
      "name": "GetALLCarListNB",
      "outputs": [
        {
          "internalType": "uint256[]",
          "name": "",
          "type": "uint256[]"
        }
      ],
      "stateMutability": "view",
      "type": "function"
    },
    {
      "inputs": [
        {
          "internalType": "uint256",
          "name": "CAR",
          "type": "uint256"
        },
        {
          "internalType": "uint64",
          "name": "now",
          "type": "uint64"
        }
      ],
      "name": "GetBorrower",
      "outputs": [
        {
          "internalType": "address",
          "name": "",
          "type": "address"
        }
      ],
      "stateMutability": "nonpayable",
      "type": "function"
    },
    {
      "inputs": [],
      "name": "GetCarList",
      "outputs": [
        {
          "internalType": "uint256[]",
          "name": "",
          "type": "uint256[]"
        }
      ],
      "stateMutability": "view",
      "type": "function"
    },
    {
      "inputs": [
        {
          "internalType": "uint64",
          "name": "now",
          "type": "uint64"
        }
      ],
      "name": "GetCarListNB",
      "outputs": [
        {
          "internalType": "uint256[]",
          "name": "",
          "type": "uint256[]"
        }
      ],
      "stateMutability": "view",
      "type": "function"
    },
    {
      "inputs": [
        {
          "internalType": "uint256",
          "name": "CAR",
          "type": "uint256"
        }
      ],
      "name": "GetOwner",
      "outputs": [
        {
          "internalType": "address",
          "name": "",
          "type": "address"
        }
      ],
      "stateMutability": "nonpayable",
      "type": "function"
    },
    {
      "inputs": [
        {
          "internalType": "uint64",
          "name": "now",
          "type": "uint64"
        }
      ],
      "name": "GetRentCarList",
      "outputs": [
        {
          "internalType": "uint256[]",
          "name": "",
          "type": "uint256[]"
        }
      ],
      "stateMutability": "view",
      "type": "function"
    },
    {
      "inputs": [],
      "name": "GetaCar",
      "outputs": [],
      "stateMutability": "nonpayable",
      "type": "function"
    },
    {
      "inputs": [
        {
          "internalType": "uint256",
          "name": "",
          "type": "uint256"
        }
      ],
      "name": "cars",
      "outputs": [
        {
          "internalType": "address",
          "name": "owner",
          "type": "address"
        },
        {
          "internalType": "address",
          "name": "borrower",
          "type": "address"
        },
        {
          "internalType": "uint256",
          "name": "borrowUntil",
          "type": "uint256"
        }
      ],
      "stateMutability": "view",
      "type": "function"
    },
    {
      "inputs": [],
      "name": "helloworld",
      "outputs": [
        {
          "internalType": "string",
          "name": "",
          "type": "string"
        }
      ],
      "stateMutability": "pure",
      "type": "function"
    },
    {
      "inputs": [],
      "name": "my",
      "outputs": [
        {
          "internalType": "contract MyERC4907",
          "name": "",
          "type": "address"
        }
      ],
      "stateMutability": "view",
      "type": "function"
    }
  ],
  "bytecode": "0x6080604052604051620000129062000281565b6200001d906200038d565b604051809103906000f0801580156200003a573d6000803e3d6000fd5b50600160006101000a81548173ffffffffffffffffffffffffffffffffffffffff021916908373ffffffffffffffffffffffffffffffffffffffff1602179055503480156200008857600080fd5b50620000936200028f565b60005b60038161ffff1610156200027957600160009054906101000a900473ffffffffffffffffffffffffffffffffffffffff1673ffffffffffffffffffffffffffffffffffffffff166321860a05306040518263ffffffff1660e01b815260040162000101919062000409565b600060405180830381600087803b1580156200011c57600080fd5b505af115801562000131573d6000803e3d6000fd5b5050505030826000019073ffffffffffffffffffffffffffffffffffffffff16908173ffffffffffffffffffffffffffffffffffffffff16815250506000826020019073ffffffffffffffffffffffffffffffffffffffff16908173ffffffffffffffffffffffffffffffffffffffff16815250506000826040018181525050816000808361ffff16815260200190815260200160002060008201518160000160006101000a81548173ffffffffffffffffffffffffffffffffffffffff021916908373ffffffffffffffffffffffffffffffffffffffff16021790555060208201518160010160006101000a81548173ffffffffffffffffffffffffffffffffffffffff021916908373ffffffffffffffffffffffffffffffffffffffff160217905550604082015181600201559050508080620002709062000463565b91505062000096565b505062000492565b61262980620022ae83390190565b6040518060600160405280600073ffffffffffffffffffffffffffffffffffffffff168152602001600073ffffffffffffffffffffffffffffffffffffffff168152602001600081525090565b600082825260208201905092915050565b7f436172546f6b656e730000000000000000000000000000000000000000000000600082015250565b600062000325600983620002dc565b91506200033282620002ed565b602082019050919050565b7f436172546f6b656e7353796d626f6c0000000000000000000000000000000000600082015250565b600062000375600f83620002dc565b915062000382826200033d565b602082019050919050565b60006040820190508181036000830152620003a88162000316565b90508181036020830152620003bd8162000366565b9050919050565b600073ffffffffffffffffffffffffffffffffffffffff82169050919050565b6000620003f182620003c4565b9050919050565b6200040381620003e4565b82525050565b6000602082019050620004206000830184620003f8565b92915050565b7f4e487b7100000000000000000000000000000000000000000000000000000000600052601160045260246000fd5b600061ffff82169050919050565b6000620004708262000455565b915061ffff820362000487576200048662000426565b5b600182019050919050565b611e0c80620004a26000396000f3fe608060405234801561001057600080fd5b50600436106100b45760003560e01c80638095584011610071578063809558401461017e578063830e190b146101ae578063929e6d09146101cc578063af43fb69146101fc578063cebc301e1461022c578063f7746e361461025c576100b4565b80630c19cc27146100b95780630f0cb966146100d757806311aed3f8146100f55780632f2f48591461012657806363444c4c146101445780636d3cfb1c14610174575b600080fd5b6100c161028e565b6040516100ce91906118c6565b60405180910390f35b6100df610572565b6040516100ec9190611967565b60405180910390f35b61010f600480360381019061010a91906119f3565b610598565b60405161011d929190611af1565b60405180910390f35b61012e6107a3565b60405161013b9190611b21565b60405180910390f35b61015e60048036038101906101599190611b43565b6107e0565b60405161016b91906118c6565b60405180910390f35b61017c610b24565b005b61019860048036038101906101939190611b70565b610d81565b6040516101a59190611bd1565b60405180910390f35b6101b6610efe565b6040516101c391906118c6565b60405180910390f35b6101e660048036038101906101e19190611b43565b6110bf565b6040516101f391906118c6565b60405180910390f35b61021660048036038101906102119190611bec565b611323565b6040516102239190611bd1565b60405180910390f35b61024660048036038101906102419190611b43565b611403565b60405161025391906118c6565b60405180910390f35b61027660048036038101906102719190611bec565b611747565b60405161028593929190611c28565b60405180910390f35b60606000805b600160009054906101000a900473ffffffffffffffffffffffffffffffffffffffff1673ffffffffffffffffffffffffffffffffffffffff1663d321fe296040518163ffffffff1660e01b8152600401602060405180830381865afa158015610301573d6000803e3d6000fd5b505050506040513d601f19601f820116820180604052508101906103259190611c74565b8161ffff1610156103be573373ffffffffffffffffffffffffffffffffffffffff166000808361ffff16815260200190815260200160002060000160009054906101000a900473ffffffffffffffffffffffffffffffffffffffff1673ffffffffffffffffffffffffffffffffffffffff16036103ab5781806103a790611cde565b9250505b80806103b690611cde565b915050610294565b5060008161ffff1667ffffffffffffffff8111156103df576103de611d08565b5b60405190808252806020026020018201604052801561040d5781602001602082028036833780820191505090505b5090506000915060005b600160009054906101000a900473ffffffffffffffffffffffffffffffffffffffff1673ffffffffffffffffffffffffffffffffffffffff1663d321fe296040518163ffffffff1660e01b8152600401602060405180830381865afa158015610484573d6000803e3d6000fd5b505050506040513d601f19601f820116820180604052508101906104a89190611c74565b8161ffff161015610569573373ffffffffffffffffffffffffffffffffffffffff166000808361ffff16815260200190815260200160002060000160009054906101000a900473ffffffffffffffffffffffffffffffffffffffff1673ffffffffffffffffffffffffffffffffffffffff1603610556578061ffff16828461ffff168151811061053b5761053a611d37565b5b602002602001018181525050828061055290611cde565b9350505b808061056190611cde565b915050610417565b50809250505090565b600160009054906101000a900473ffffffffffffffffffffffffffffffffffffffff1681565b6000606084600160009054906101000a900473ffffffffffffffffffffffffffffffffffffffff1673ffffffffffffffffffffffffffffffffffffffff1663d321fe296040518163ffffffff1660e01b8152600401602060405180830381865afa15801561060a573d6000803e3d6000fd5b505050506040513d601f19601f8201168201806040525081019061062e9190611c74565b116106745760006040518060400160405280601481526020017f7468657265206973206e6f2073756368206361720000000000000000000000008152509150915061079b565b8367ffffffffffffffff1660008087815260200190815260200160002060020154106106db5760006040518060400160405280601a81526020017f746869732063617220686173206265656e20626f72726f7765640000000000008152509150915061079b565b82846106e79190611d66565b67ffffffffffffffff16600080878152602001908152602001600020600201819055503360008087815260200190815260200160002060010160006101000a81548173ffffffffffffffffffffffffffffffffffffffff021916908373ffffffffffffffffffffffffffffffffffffffff16021790555060016040518060400160405280601381526020017f626f72726f77207375636365737366756c6c7900000000000000000000000000815250915091505b935093915050565b60606040518060400160405280600b81526020017f68656c6c6f20776f726c64000000000000000000000000000000000000000000815250905090565b60606000805b600160009054906101000a900473ffffffffffffffffffffffffffffffffffffffff1673ffffffffffffffffffffffffffffffffffffffff1663d321fe296040518163ffffffff1660e01b8152600401602060405180830381865afa158015610853573d6000803e3d6000fd5b505050506040513d601f19601f820116820180604052508101906108779190611c74565b8161ffff16101561093f573373ffffffffffffffffffffffffffffffffffffffff166000808361ffff16815260200190815260200160002060000160009054906101000a900473ffffffffffffffffffffffffffffffffffffffff1673ffffffffffffffffffffffffffffffffffffffff1614801561091857508367ffffffffffffffff166000808361ffff16815260200190815260200160002060020154105b1561092c57818061092890611cde565b9250505b808061093790611cde565b9150506107e6565b5060008161ffff1667ffffffffffffffff8111156109605761095f611d08565b5b60405190808252806020026020018201604052801561098e5781602001602082028036833780820191505090505b5090506000915060005b600160009054906101000a900473ffffffffffffffffffffffffffffffffffffffff1673ffffffffffffffffffffffffffffffffffffffff1663d321fe296040518163ffffffff1660e01b8152600401602060405180830381865afa158015610a05573d6000803e3d6000fd5b505050506040513d601f19601f82011682018060405250810190610a299190611c74565b8161ffff161015610b19573373ffffffffffffffffffffffffffffffffffffffff166000808361ffff16815260200190815260200160002060000160009054906101000a900473ffffffffffffffffffffffffffffffffffffffff1673ffffffffffffffffffffffffffffffffffffffff16148015610aca57508467ffffffffffffffff166000808361ffff16815260200190815260200160002060020154105b15610b06578061ffff16828461ffff1681518110610aeb57610aea611d37565b5b6020026020010181815250508280610b0290611cde565b9350505b8080610b1190611cde565b915050610998565b508092505050919050565b600160009054906101000a900473ffffffffffffffffffffffffffffffffffffffff1673ffffffffffffffffffffffffffffffffffffffff166321860a05336040518263ffffffff1660e01b8152600401610b7f9190611bd1565b600060405180830381600087803b158015610b9957600080fd5b505af1158015610bad573d6000803e3d6000fd5b50505050610bb96117b1565b33816000019073ffffffffffffffffffffffffffffffffffffffff16908173ffffffffffffffffffffffffffffffffffffffff16815250506000816020019073ffffffffffffffffffffffffffffffffffffffff16908173ffffffffffffffffffffffffffffffffffffffff168152505060008160400181815250508060008060018060009054906101000a900473ffffffffffffffffffffffffffffffffffffffff1673ffffffffffffffffffffffffffffffffffffffff1663d321fe296040518163ffffffff1660e01b8152600401602060405180830381865afa158015610ca7573d6000803e3d6000fd5b505050506040513d601f19601f82011682018060405250810190610ccb9190611c74565b610cd59190611da2565b815260200190815260200160002060008201518160000160006101000a81548173ffffffffffffffffffffffffffffffffffffffff021916908373ffffffffffffffffffffffffffffffffffffffff16021790555060208201518160010160006101000a81548173ffffffffffffffffffffffffffffffffffffffff021916908373ffffffffffffffffffffffffffffffffffffffff1602179055506040820151816002015590505050565b6000600160009054906101000a900473ffffffffffffffffffffffffffffffffffffffff1673ffffffffffffffffffffffffffffffffffffffff1663d321fe296040518163ffffffff1660e01b8152600401602060405180830381865afa158015610df0573d6000803e3d6000fd5b505050506040513d601f19601f82011682018060405250810190610e149190611c74565b8310610e235760009050610ef8565b600073ffffffffffffffffffffffffffffffffffffffff1660008085815260200190815260200160002060010160009054906101000a900473ffffffffffffffffffffffffffffffffffffffff1673ffffffffffffffffffffffffffffffffffffffff161480610eb157508167ffffffffffffffff1660008085815260200190815260200160002060020154105b15610ebf5760009050610ef8565b60008084815260200190815260200160002060010160009054906101000a900473ffffffffffffffffffffffffffffffffffffffff1690505b92915050565b60606000600160009054906101000a900473ffffffffffffffffffffffffffffffffffffffff1673ffffffffffffffffffffffffffffffffffffffff1663d321fe296040518163ffffffff1660e01b8152600401602060405180830381865afa158015610f6f573d6000803e3d6000fd5b505050506040513d601f19601f82011682018060405250810190610f939190611c74565b67ffffffffffffffff811115610fac57610fab611d08565b5b604051908082528060200260200182016040528015610fda5781602001602082028036833780820191505090505b50905060005b600160009054906101000a900473ffffffffffffffffffffffffffffffffffffffff1673ffffffffffffffffffffffffffffffffffffffff1663d321fe296040518163ffffffff1660e01b8152600401602060405180830381865afa15801561104d573d6000803e3d6000fd5b505050506040513d601f19601f820116820180604052508101906110719190611c74565b8161ffff1610156110b7578061ffff16828261ffff168151811061109857611097611d37565b5b60200260200101818152505080806110af90611cde565b915050610fe0565b508091505090565b60606000805b600160009054906101000a900473ffffffffffffffffffffffffffffffffffffffff1673ffffffffffffffffffffffffffffffffffffffff1663d321fe296040518163ffffffff1660e01b8152600401602060405180830381865afa158015611132573d6000803e3d6000fd5b505050506040513d601f19601f820116820180604052508101906111569190611c74565b8161ffff1610156111ae578367ffffffffffffffff166000808361ffff16815260200190815260200160002060020154101561119b57818061119790611cde565b9250505b80806111a690611cde565b9150506110c5565b5060008161ffff1667ffffffffffffffff8111156111cf576111ce611d08565b5b6040519080825280602002602001820160405280156111fd5781602001602082028036833780820191505090505b5090506000915060005b600160009054906101000a900473ffffffffffffffffffffffffffffffffffffffff1673ffffffffffffffffffffffffffffffffffffffff1663d321fe296040518163ffffffff1660e01b8152600401602060405180830381865afa158015611274573d6000803e3d6000fd5b505050506040513d601f19601f820116820180604052508101906112989190611c74565b8161ffff161015611318578467ffffffffffffffff166000808361ffff168152602001908152602001600020600201541015611305578061ffff16828461ffff16815181106112ea576112e9611d37565b5b602002602001018181525050828061130190611cde565b9350505b808061131090611cde565b915050611207565b508092505050919050565b6000600160009054906101000a900473ffffffffffffffffffffffffffffffffffffffff1673ffffffffffffffffffffffffffffffffffffffff1663d321fe296040518163ffffffff1660e01b8152600401602060405180830381865afa158015611392573d6000803e3d6000fd5b505050506040513d601f19601f820116820180604052508101906113b69190611c74565b82106113c557600090506113fe565b60008083815260200190815260200160002060000160009054906101000a900473ffffffffffffffffffffffffffffffffffffffff1690505b919050565b60606000805b600160009054906101000a900473ffffffffffffffffffffffffffffffffffffffff1673ffffffffffffffffffffffffffffffffffffffff1663d321fe296040518163ffffffff1660e01b8152600401602060405180830381865afa158015611476573d6000803e3d6000fd5b505050506040513d601f19601f8201168201806040525081019061149a9190611c74565b8161ffff161015611562573373ffffffffffffffffffffffffffffffffffffffff166000808361ffff16815260200190815260200160002060010160009054906101000a900473ffffffffffffffffffffffffffffffffffffffff1673ffffffffffffffffffffffffffffffffffffffff1614801561153b57508367ffffffffffffffff166000808361ffff16815260200190815260200160002060020154115b1561154f57818061154b90611cde565b9250505b808061155a90611cde565b915050611409565b5060008161ffff1667ffffffffffffffff81111561158357611582611d08565b5b6040519080825280602002602001820160405280156115b15781602001602082028036833780820191505090505b5090506000915060005b600160009054906101000a900473ffffffffffffffffffffffffffffffffffffffff1673ffffffffffffffffffffffffffffffffffffffff1663d321fe296040518163ffffffff1660e01b8152600401602060405180830381865afa158015611628573d6000803e3d6000fd5b505050506040513d601f19601f8201168201806040525081019061164c9190611c74565b8161ffff16101561173c573373ffffffffffffffffffffffffffffffffffffffff166000808361ffff16815260200190815260200160002060010160009054906101000a900473ffffffffffffffffffffffffffffffffffffffff1673ffffffffffffffffffffffffffffffffffffffff161480156116ed57508467ffffffffffffffff166000808361ffff16815260200190815260200160002060020154115b15611729578061ffff16828461ffff168151811061170e5761170d611d37565b5b602002602001018181525050828061172590611cde565b9350505b808061173490611cde565b9150506115bb565b508092505050919050565b60006020528060005260406000206000915090508060000160009054906101000a900473ffffffffffffffffffffffffffffffffffffffff16908060010160009054906101000a900473ffffffffffffffffffffffffffffffffffffffff16908060020154905083565b6040518060600160405280600073ffffffffffffffffffffffffffffffffffffffff168152602001600073ffffffffffffffffffffffffffffffffffffffff168152602001600081525090565b600081519050919050565b600082825260208201905092915050565b6000819050602082019050919050565b6000819050919050565b61183d8161182a565b82525050565b600061184f8383611834565b60208301905092915050565b6000602082019050919050565b6000611873826117fe565b61187d8185611809565b93506118888361181a565b8060005b838110156118b95781516118a08882611843565b97506118ab8361185b565b92505060018101905061188c565b5085935050505092915050565b600060208201905081810360008301526118e08184611868565b905092915050565b600073ffffffffffffffffffffffffffffffffffffffff82169050919050565b6000819050919050565b600061192d611928611923846118e8565b611908565b6118e8565b9050919050565b600061193f82611912565b9050919050565b600061195182611934565b9050919050565b61196181611946565b82525050565b600060208201905061197c6000830184611958565b92915050565b600080fd5b6119908161182a565b811461199b57600080fd5b50565b6000813590506119ad81611987565b92915050565b600067ffffffffffffffff82169050919050565b6119d0816119b3565b81146119db57600080fd5b50565b6000813590506119ed816119c7565b92915050565b600080600060608486031215611a0c57611a0b611982565b5b6000611a1a8682870161199e565b9350506020611a2b868287016119de565b9250506040611a3c868287016119de565b9150509250925092565b60008115159050919050565b611a5b81611a46565b82525050565b600081519050919050565b600082825260208201905092915050565b60005b83811015611a9b578082015181840152602081019050611a80565b60008484015250505050565b6000601f19601f8301169050919050565b6000611ac382611a61565b611acd8185611a6c565b9350611add818560208601611a7d565b611ae681611aa7565b840191505092915050565b6000604082019050611b066000830185611a52565b8181036020830152611b188184611ab8565b90509392505050565b60006020820190508181036000830152611b3b8184611ab8565b905092915050565b600060208284031215611b5957611b58611982565b5b6000611b67848285016119de565b91505092915050565b60008060408385031215611b8757611b86611982565b5b6000611b958582860161199e565b9250506020611ba6858286016119de565b9150509250929050565b6000611bbb826118e8565b9050919050565b611bcb81611bb0565b82525050565b6000602082019050611be66000830184611bc2565b92915050565b600060208284031215611c0257611c01611982565b5b6000611c108482850161199e565b91505092915050565b611c228161182a565b82525050565b6000606082019050611c3d6000830186611bc2565b611c4a6020830185611bc2565b611c576040830184611c19565b949350505050565b600081519050611c6e81611987565b92915050565b600060208284031215611c8a57611c89611982565b5b6000611c9884828501611c5f565b91505092915050565b7f4e487b7100000000000000000000000000000000000000000000000000000000600052601160045260246000fd5b600061ffff82169050919050565b6000611ce982611cd0565b915061ffff8203611cfd57611cfc611ca1565b5b600182019050919050565b7f4e487b7100000000000000000000000000000000000000000000000000000000600052604160045260246000fd5b7f4e487b7100000000000000000000000000000000000000000000000000000000600052603260045260246000fd5b6000611d71826119b3565b9150611d7c836119b3565b9250828201905067ffffffffffffffff811115611d9c57611d9b611ca1565b5b92915050565b6000611dad8261182a565b9150611db88361182a565b9250828203905081811115611dd057611dcf611ca1565b5b9291505056fea2646970667358221220581e06ad0be38dc1bcd4a1bf6796c27fb8689bd5414dbf9108ad8f729f771a4864736f6c6343000814003360806040523480156200001157600080fd5b506040516200262938038062002629833981810160405281019062000037919062000202565b818181600090816200004a9190620004d2565b5080600190816200005c9190620004d2565b50505060006007819055505050620005b9565b6000604051905090565b600080fd5b600080fd5b600080fd5b600080fd5b6000601f19601f8301169050919050565b7f4e487b7100000000000000000000000000000000000000000000000000000000600052604160045260246000fd5b620000d8826200008d565b810181811067ffffffffffffffff82111715620000fa57620000f96200009e565b5b80604052505050565b60006200010f6200006f565b90506200011d8282620000cd565b919050565b600067ffffffffffffffff82111562000140576200013f6200009e565b5b6200014b826200008d565b9050602081019050919050565b60005b83811015620001785780820151818401526020810190506200015b565b60008484015250505050565b60006200019b620001958462000122565b62000103565b905082815260208101848484011115620001ba57620001b962000088565b5b620001c784828562000158565b509392505050565b600082601f830112620001e757620001e662000083565b5b8151620001f984826020860162000184565b91505092915050565b600080604083850312156200021c576200021b62000079565b5b600083015167ffffffffffffffff8111156200023d576200023c6200007e565b5b6200024b85828601620001cf565b925050602083015167ffffffffffffffff8111156200026f576200026e6200007e565b5b6200027d85828601620001cf565b9150509250929050565b600081519050919050565b7f4e487b7100000000000000000000000000000000000000000000000000000000600052602260045260246000fd5b60006002820490506001821680620002da57607f821691505b602082108103620002f057620002ef62000292565b5b50919050565b60008190508160005260206000209050919050565b60006020601f8301049050919050565b600082821b905092915050565b6000600883026200035a7fffffffffffffffffffffffffffffffffffffffffffffffffffffffffffffffff826200031b565b6200036686836200031b565b95508019841693508086168417925050509392505050565b6000819050919050565b6000819050919050565b6000620003b3620003ad620003a7846200037e565b62000388565b6200037e565b9050919050565b6000819050919050565b620003cf8362000392565b620003e7620003de82620003ba565b84845462000328565b825550505050565b600090565b620003fe620003ef565b6200040b818484620003c4565b505050565b5b81811015620004335762000427600082620003f4565b60018101905062000411565b5050565b601f82111562000482576200044c81620002f6565b62000457846200030b565b8101602085101562000467578190505b6200047f62000476856200030b565b83018262000410565b50505b505050565b600082821c905092915050565b6000620004a76000198460080262000487565b1980831691505092915050565b6000620004c2838362000494565b9150826002028217905092915050565b620004dd8262000287565b67ffffffffffffffff811115620004f957620004f86200009e565b5b620005058254620002c1565b6200051282828562000437565b600060209050601f8311600181146200054a576000841562000535578287015190505b620005418582620004b4565b865550620005b1565b601f1984166200055a86620002f6565b60005b8281101562000584578489015182556001820191506020850194506020810190506200055d565b86831015620005a45784890151620005a0601f89168262000494565b8355505b6001600288020188555050505b505050505050565b61206080620005c96000396000f3fe608060405234801561001057600080fd5b50600436106101005760003560e01c806370a0823111610097578063b88d4fde11610066578063b88d4fde146102a9578063c87b56dd146102c5578063d321fe29146102f5578063e985e9c51461031357610100565b806370a082311461022357806394bf804d1461025357806395d89b411461026f578063a22cb4651461028d57610100565b806321860a05116100d357806321860a051461019f57806323b872dd146101bb57806342842e0e146101d75780636352211e146101f357610100565b806301ffc9a71461010557806306fdde0314610135578063081812fc14610153578063095ea7b314610183575b600080fd5b61011f600480360381019061011a91906117bf565b610343565b60405161012c9190611807565b60405180910390f35b61013d610425565b60405161014a91906118b2565b60405180910390f35b61016d6004803603810190610168919061190a565b6104b7565b60405161017a9190611978565b60405180910390f35b61019d600480360381019061019891906119bf565b6104d3565b005b6101b960048036038101906101b491906119ff565b6104e9565b005b6101d560048036038101906101d09190611a2c565b610610565b005b6101f160048036038101906101ec9190611a2c565b610712565b005b61020d6004803603810190610208919061190a565b610732565b60405161021a9190611978565b60405180910390f35b61023d600480360381019061023891906119ff565b610744565b60405161024a9190611a8e565b60405180910390f35b61026d60048036038101906102689190611aa9565b6107fe565b005b61027761080c565b60405161028491906118b2565b60405180910390f35b6102a760048036038101906102a29190611b15565b61089e565b005b6102c360048036038101906102be9190611c8a565b6108b4565b005b6102df60048036038101906102da919061190a565b6108d1565b6040516102ec91906118b2565b60405180910390f35b6102fd61093a565b60405161030a9190611a8e565b60405180910390f35b61032d60048036038101906103289190611d0d565b610944565b60405161033a9190611807565b60405180910390f35b60007f80ac58cd000000000000000000000000000000000000000000000000000000007bffffffffffffffffffffffffffffffffffffffffffffffffffffffff1916827bffffffffffffffffffffffffffffffffffffffffffffffffffffffff1916148061040e57507f5b5e139f000000000000000000000000000000000000000000000000000000007bffffffffffffffffffffffffffffffffffffffffffffffffffffffff1916827bffffffffffffffffffffffffffffffffffffffffffffffffffffffff1916145b8061041e575061041d826109d8565b5b9050919050565b60606000805461043490611d7c565b80601f016020809104026020016040519081016040528092919081815260200182805461046090611d7c565b80156104ad5780601f10610482576101008083540402835291602001916104ad565b820191906000526020600020905b81548152906001019060200180831161049057829003601f168201915b5050505050905090565b60006104c282610a42565b506104cc82610aca565b9050919050565b6104e582826104e0610b07565b610b0f565b5050565b6104f581600754610b21565b6007600081548092919061050890611ddc565b9190505550610515611719565b81816000019073ffffffffffffffffffffffffffffffffffffffff16908173ffffffffffffffffffffffffffffffffffffffff16815250506365320950816020019067ffffffffffffffff16908167ffffffffffffffff1681525050806006600060016007546105859190611e24565b815260200190815260200160002060008201518160000160006101000a81548173ffffffffffffffffffffffffffffffffffffffff021916908373ffffffffffffffffffffffffffffffffffffffff16021790555060208201518160000160146101000a81548167ffffffffffffffff021916908367ffffffffffffffff1602179055509050505050565b600073ffffffffffffffffffffffffffffffffffffffff168273ffffffffffffffffffffffffffffffffffffffff16036106825760006040517f64a0ae920000000000000000000000000000000000000000000000000000000081526004016106799190611978565b60405180910390fd5b60006106968383610691610b07565b610c1a565b90508373ffffffffffffffffffffffffffffffffffffffff168173ffffffffffffffffffffffffffffffffffffffff161461070c578382826040517f64283d7b00000000000000000000000000000000000000000000000000000000815260040161070393929190611e58565b60405180910390fd5b50505050565b61072d838383604051806020016040528060008152506108b4565b505050565b600061073d82610a42565b9050919050565b60008073ffffffffffffffffffffffffffffffffffffffff168273ffffffffffffffffffffffffffffffffffffffff16036107b75760006040517f89c62b640000000000000000000000000000000000000000000000000000000081526004016107ae9190611978565b60405180910390fd5b600360008373ffffffffffffffffffffffffffffffffffffffff1673ffffffffffffffffffffffffffffffffffffffff168152602001908152602001600020549050919050565b6108088183610b21565b5050565b60606001805461081b90611d7c565b80601f016020809104026020016040519081016040528092919081815260200182805461084790611d7c565b80156108945780601f1061086957610100808354040283529160200191610894565b820191906000526020600020905b81548152906001019060200180831161087757829003601f168201915b5050505050905090565b6108b06108a9610b07565b8383610e34565b5050565b6108bf848484610610565b6108cb84848484610fa3565b50505050565b60606108dc82610a42565b5060006108e761115a565b905060008151116109075760405180602001604052806000815250610932565b8061091184611171565b604051602001610922929190611ecb565b6040516020818303038152906040525b915050919050565b6000600754905090565b6000600560008473ffffffffffffffffffffffffffffffffffffffff1673ffffffffffffffffffffffffffffffffffffffff16815260200190815260200160002060008373ffffffffffffffffffffffffffffffffffffffff1673ffffffffffffffffffffffffffffffffffffffff16815260200190815260200160002060009054906101000a900460ff16905092915050565b60007f01ffc9a7000000000000000000000000000000000000000000000000000000007bffffffffffffffffffffffffffffffffffffffffffffffffffffffff1916827bffffffffffffffffffffffffffffffffffffffffffffffffffffffff1916149050919050565b600080610a4e8361123f565b9050600073ffffffffffffffffffffffffffffffffffffffff168173ffffffffffffffffffffffffffffffffffffffff1603610ac157826040517f7e273289000000000000000000000000000000000000000000000000000000008152600401610ab89190611a8e565b60405180910390fd5b80915050919050565b60006004600083815260200190815260200160002060009054906101000a900473ffffffffffffffffffffffffffffffffffffffff169050919050565b600033905090565b610b1c838383600161127c565b505050565b600073ffffffffffffffffffffffffffffffffffffffff168273ffffffffffffffffffffffffffffffffffffffff1603610b935760006040517f64a0ae92000000000000000000000000000000000000000000000000000000008152600401610b8a9190611978565b60405180910390fd5b6000610ba183836000610c1a565b9050600073ffffffffffffffffffffffffffffffffffffffff168173ffffffffffffffffffffffffffffffffffffffff1614610c155760006040517f73c6ac6e000000000000000000000000000000000000000000000000000000008152600401610c0c9190611978565b60405180910390fd5b505050565b600080610c268461123f565b9050600073ffffffffffffffffffffffffffffffffffffffff168373ffffffffffffffffffffffffffffffffffffffff1614610c6857610c67818486611441565b5b600073ffffffffffffffffffffffffffffffffffffffff168173ffffffffffffffffffffffffffffffffffffffff1614610cf957610caa60008560008061127c565b6001600360008373ffffffffffffffffffffffffffffffffffffffff1673ffffffffffffffffffffffffffffffffffffffff168152602001908152602001600020600082825403925050819055505b600073ffffffffffffffffffffffffffffffffffffffff168573ffffffffffffffffffffffffffffffffffffffff1614610d7c576001600360008773ffffffffffffffffffffffffffffffffffffffff1673ffffffffffffffffffffffffffffffffffffffff168152602001908152602001600020600082825401925050819055505b846002600086815260200190815260200160002060006101000a81548173ffffffffffffffffffffffffffffffffffffffff021916908373ffffffffffffffffffffffffffffffffffffffff160217905550838573ffffffffffffffffffffffffffffffffffffffff168273ffffffffffffffffffffffffffffffffffffffff167fddf252ad1be2c89b69c2b068fc378daa952ba7f163c4a11628f55a4df523b3ef60405160405180910390a4809150509392505050565b600073ffffffffffffffffffffffffffffffffffffffff168273ffffffffffffffffffffffffffffffffffffffff1603610ea557816040517f5b08ba18000000000000000000000000000000000000000000000000000000008152600401610e9c9190611978565b60405180910390fd5b80600560008573ffffffffffffffffffffffffffffffffffffffff1673ffffffffffffffffffffffffffffffffffffffff16815260200190815260200160002060008473ffffffffffffffffffffffffffffffffffffffff1673ffffffffffffffffffffffffffffffffffffffff16815260200190815260200160002060006101000a81548160ff0219169083151502179055508173ffffffffffffffffffffffffffffffffffffffff168373ffffffffffffffffffffffffffffffffffffffff167f17307eab39ab6107e8899845ad3d59bd9653f200f220920489ca2b5937696c3183604051610f969190611807565b60405180910390a3505050565b60008373ffffffffffffffffffffffffffffffffffffffff163b1115611154578273ffffffffffffffffffffffffffffffffffffffff1663150b7a02610fe7610b07565b8685856040518563ffffffff1660e01b81526004016110099493929190611f44565b6020604051808303816000875af192505050801561104557506040513d601f19601f820116820180604052508101906110429190611fa5565b60015b6110c9573d8060008114611075576040519150601f19603f3d011682016040523d82523d6000602084013e61107a565b606091505b5060008151036110c157836040517f64a0ae920000000000000000000000000000000000000000000000000000000081526004016110b89190611978565b60405180910390fd5b805181602001fd5b63150b7a0260e01b7bffffffffffffffffffffffffffffffffffffffffffffffffffffffff1916817bffffffffffffffffffffffffffffffffffffffffffffffffffffffff19161461115257836040517f64a0ae920000000000000000000000000000000000000000000000000000000081526004016111499190611978565b60405180910390fd5b505b50505050565b606060405180602001604052806000815250905090565b60606000600161118084611505565b01905060008167ffffffffffffffff81111561119f5761119e611b5f565b5b6040519080825280601f01601f1916602001820160405280156111d15781602001600182028036833780820191505090505b509050600082602001820190505b600115611234578080600190039150507f3031323334353637383961626364656600000000000000000000000000000000600a86061a8153600a858161122857611227611fd2565b5b049450600085036111df575b819350505050919050565b60006002600083815260200190815260200160002060009054906101000a900473ffffffffffffffffffffffffffffffffffffffff169050919050565b80806112b55750600073ffffffffffffffffffffffffffffffffffffffff168273ffffffffffffffffffffffffffffffffffffffff1614155b156113e95760006112c584610a42565b9050600073ffffffffffffffffffffffffffffffffffffffff168373ffffffffffffffffffffffffffffffffffffffff161415801561133057508273ffffffffffffffffffffffffffffffffffffffff168173ffffffffffffffffffffffffffffffffffffffff1614155b801561134357506113418184610944565b155b1561138557826040517fa9fbf51f00000000000000000000000000000000000000000000000000000000815260040161137c9190611978565b60405180910390fd5b81156113e757838573ffffffffffffffffffffffffffffffffffffffff168273ffffffffffffffffffffffffffffffffffffffff167f8c5be1e5ebec7d5bd14f71427d1e84f3dd0314c0f7b2291e5b200ac8c7c3b92560405160405180910390a45b505b836004600085815260200190815260200160002060006101000a81548173ffffffffffffffffffffffffffffffffffffffff021916908373ffffffffffffffffffffffffffffffffffffffff16021790555050505050565b61144c838383611658565b61150057600073ffffffffffffffffffffffffffffffffffffffff168373ffffffffffffffffffffffffffffffffffffffff16036114c157806040517f7e2732890000000000000000000000000000000000000000000000000000000081526004016114b89190611a8e565b60405180910390fd5b81816040517f177e802f0000000000000000000000000000000000000000000000000000000081526004016114f7929190612001565b60405180910390fd5b505050565b600080600090507a184f03e93ff9f4daa797ed6e38ed64bf6a1f0100000000000000008310611563577a184f03e93ff9f4daa797ed6e38ed64bf6a1f010000000000000000838161155957611558611fd2565b5b0492506040810190505b6d04ee2d6d415b85acef810000000083106115a0576d04ee2d6d415b85acef8100000000838161159657611595611fd2565b5b0492506020810190505b662386f26fc1000083106115cf57662386f26fc1000083816115c5576115c4611fd2565b5b0492506010810190505b6305f5e10083106115f8576305f5e10083816115ee576115ed611fd2565b5b0492506008810190505b612710831061161d57612710838161161357611612611fd2565b5b0492506004810190505b60648310611640576064838161163657611635611fd2565b5b0492506002810190505b600a831061164f576001810190505b80915050919050565b60008073ffffffffffffffffffffffffffffffffffffffff168373ffffffffffffffffffffffffffffffffffffffff161415801561171057508273ffffffffffffffffffffffffffffffffffffffff168473ffffffffffffffffffffffffffffffffffffffff1614806116d157506116d08484610944565b5b8061170f57508273ffffffffffffffffffffffffffffffffffffffff166116f783610aca565b73ffffffffffffffffffffffffffffffffffffffff16145b5b90509392505050565b6040518060400160405280600073ffffffffffffffffffffffffffffffffffffffff168152602001600067ffffffffffffffff1681525090565b6000604051905090565b600080fd5b600080fd5b60007fffffffff0000000000000000000000000000000000000000000000000000000082169050919050565b61179c81611767565b81146117a757600080fd5b50565b6000813590506117b981611793565b92915050565b6000602082840312156117d5576117d461175d565b5b60006117e3848285016117aa565b91505092915050565b60008115159050919050565b611801816117ec565b82525050565b600060208201905061181c60008301846117f8565b92915050565b600081519050919050565b600082825260208201905092915050565b60005b8381101561185c578082015181840152602081019050611841565b60008484015250505050565b6000601f19601f8301169050919050565b600061188482611822565b61188e818561182d565b935061189e81856020860161183e565b6118a781611868565b840191505092915050565b600060208201905081810360008301526118cc8184611879565b905092915050565b6000819050919050565b6118e7816118d4565b81146118f257600080fd5b50565b600081359050611904816118de565b92915050565b6000602082840312156119205761191f61175d565b5b600061192e848285016118f5565b91505092915050565b600073ffffffffffffffffffffffffffffffffffffffff82169050919050565b600061196282611937565b9050919050565b61197281611957565b82525050565b600060208201905061198d6000830184611969565b92915050565b61199c81611957565b81146119a757600080fd5b50565b6000813590506119b981611993565b92915050565b600080604083850312156119d6576119d561175d565b5b60006119e4858286016119aa565b92505060206119f5858286016118f5565b9150509250929050565b600060208284031215611a1557611a1461175d565b5b6000611a23848285016119aa565b91505092915050565b600080600060608486031215611a4557611a4461175d565b5b6000611a53868287016119aa565b9350506020611a64868287016119aa565b9250506040611a75868287016118f5565b9150509250925092565b611a88816118d4565b82525050565b6000602082019050611aa36000830184611a7f565b92915050565b60008060408385031215611ac057611abf61175d565b5b6000611ace858286016118f5565b9250506020611adf858286016119aa565b9150509250929050565b611af2816117ec565b8114611afd57600080fd5b50565b600081359050611b0f81611ae9565b92915050565b60008060408385031215611b2c57611b2b61175d565b5b6000611b3a858286016119aa565b9250506020611b4b85828601611b00565b9150509250929050565b600080fd5b600080fd5b7f4e487b7100000000000000000000000000000000000000000000000000000000600052604160045260246000fd5b611b9782611868565b810181811067ffffffffffffffff82111715611bb657611bb5611b5f565b5b80604052505050565b6000611bc9611753565b9050611bd58282611b8e565b919050565b600067ffffffffffffffff821115611bf557611bf4611b5f565b5b611bfe82611868565b9050602081019050919050565b82818337600083830152505050565b6000611c2d611c2884611bda565b611bbf565b905082815260208101848484011115611c4957611c48611b5a565b5b611c54848285611c0b565b509392505050565b600082601f830112611c7157611c70611b55565b5b8135611c81848260208601611c1a565b91505092915050565b60008060008060808587031215611ca457611ca361175d565b5b6000611cb2878288016119aa565b9450506020611cc3878288016119aa565b9350506040611cd4878288016118f5565b925050606085013567ffffffffffffffff811115611cf557611cf4611762565b5b611d0187828801611c5c565b91505092959194509250565b60008060408385031215611d2457611d2361175d565b5b6000611d32858286016119aa565b9250506020611d43858286016119aa565b9150509250929050565b7f4e487b7100000000000000000000000000000000000000000000000000000000600052602260045260246000fd5b60006002820490506001821680611d9457607f821691505b602082108103611da757611da6611d4d565b5b50919050565b7f4e487b7100000000000000000000000000000000000000000000000000000000600052601160045260246000fd5b6000611de7826118d4565b91507fffffffffffffffffffffffffffffffffffffffffffffffffffffffffffffffff8203611e1957611e18611dad565b5b600182019050919050565b6000611e2f826118d4565b9150611e3a836118d4565b9250828203905081811115611e5257611e51611dad565b5b92915050565b6000606082019050611e6d6000830186611969565b611e7a6020830185611a7f565b611e876040830184611969565b949350505050565b600081905092915050565b6000611ea582611822565b611eaf8185611e8f565b9350611ebf81856020860161183e565b80840191505092915050565b6000611ed78285611e9a565b9150611ee38284611e9a565b91508190509392505050565b600081519050919050565b600082825260208201905092915050565b6000611f1682611eef565b611f208185611efa565b9350611f3081856020860161183e565b611f3981611868565b840191505092915050565b6000608082019050611f596000830187611969565b611f666020830186611969565b611f736040830185611a7f565b8181036060830152611f858184611f0b565b905095945050505050565b600081519050611f9f81611793565b92915050565b600060208284031215611fbb57611fba61175d565b5b6000611fc984828501611f90565b91505092915050565b7f4e487b7100000000000000000000000000000000000000000000000000000000600052601260045260246000fd5b60006040820190506120166000830185611969565b6120236020830184611a7f565b939250505056fea264697066735822122058a09289b02907277d6608dca30bb429dc64ddac8553dc853fbbca5b922b535264736f6c63430008140033",
  "linkReferences": {},
  "deployedLinkReferences": {}
}